:020000020000FC
:1000A0000F939F936F932F9390E060E024E0012FD4
:1000B000110F960B110F961F2A952030C9F790301B
:1000C00029F0933019F09D3F09F002C0800F761F90
:1000D0002F916F919F910F9108950F939F936F931D
:1000E0002F9390E060E023E0012F10FD9F5F11FD52
:1000F0009E5F12FD9C5F1695169516952A952030E9
:10010000A1F797502AF011F023E0EFCF400F561FD0
:0A0110002F916F919F910F910895B8
:1000000008E00EBF0FEF0DBFE0E0F1E01FE729E1D0
:1000100011931C5F2A952030D9F7E0E0F1E029E147
:1000200010810E946D0011910E9450002A9520308D
:04003000B9F7FFCF4E
:00000001FF
