:100000000C9434000C943E000C943E000C943E0082
:100010000C943E000C943E000C943E000C943E0068
:100020000C943E000C943E000C943E000C943E0058
:100030000C943E000C9440000C943E000C943E0046
:100040000C943E000C943E000C943E000C943E0038
:100050000C943E000C943E000C943E000C943E0028
:100060000C943E000C943E0011241FBECFEFD8E04C
:10007000DEBFCDBF0E9459000C9494000C94000088
:100080001F920F920FB60F921124409A0F900FBE3D
:100090000F901F9018958BED9BE0909385008093B7
:1000A000840010928000E1E8F0E08081836080832A
:1000B00008958FEF84B987B98AB180668AB9409A6A
:1000C000EFE6F0E08081816080837894C0E0DDEC31
:1000D00000E210E4409BFECFCF5FC5B98C2F869520
:1000E000869588B9CD9F812D112486958695982F68
:1000F000990F990F890FC81303C08BB180278BB953
:10010000CD9F812D1124869586958695880F982FF1
:10011000990F990F890FC81303C08BB181278BB931
:0C0120000E944B004098D6CFF894FFCF0F
:00000001FF
