:100000000C9434000C943E000C943E000C943E0082
:100010000C943E000C943E000C943E000C943E0068
:100020000C943E000C943E000C943E000C943E0058
:100030000C943E000C943E000C943E000C943E0048
:100040000C943E000C943E000C943E000C943E0038
:100050000C943E000C943E000C943E000C943E0028
:100060000C943E000C943E0011241FBECFEFD8E04C
:10007000DEBFCDBF0E9451000C9466000C940000BE
:10008000EAE7F0E087E8808310927C00808180645A
:100090008083808184FFFDCF8091780090917900EA
:1000A00008953898219AE0E8F0E08081836C80839D
:1000B000E1E8F0E080818C608083C8E8D0E0B19B0B
:1000C000FECF0E94400099838883F9CFF894FFCF38
:00000001FF
