S00E00005461736B5F322E73726563F2
S11300000C9434000C943E000C943E000C943E007E
S11300100C943E000C943E000C943E000C943E0064
S11300200C943E000C943E000C943E000C943E0054
S11300300C943E000C943E000C943E000C943E0044
S11300400C943E000C943E000C943E000C943E0034
S11300500C943E000C943E000C943E000C943E0024
S11300600C943E000C943E0011241FBECFEFD8E048
S1130070DEBFCDBF0E9451000C9490000C94000090
S1130080EAE7F0E087E8808310927C008081806456
S11300908083808184FFFDCF8091780090917900E6
S11300A008958FEF8AB93898219AE0E8F0E08081CA
S11300B0836C8083E1E8F0E080818D608083C8E810
S11300C0D0E00F2EF6E6EF2EF02D0F2EFCECFF2ED7
S11300D0F02D09E913E3B19B04C00E944000998309
S11300E08883199BF8CFEBB88FE99FE00197F1F76C
S11300F000C00000FBB88FE99FE00197F1F700C052
S113010000000BB98FE99FE00197F1F700C00000F0
S11301101BB98FE99FE00197F1F700C00000DBCF26
S1070120F894FFCF7D
S9030000FC
