:100000000C9434000C943E000C943E000C943E0082
:100010000C943E000C943E000C943E000C943E0068
:100020000C943E000C943E000C943E000C943E0058
:100030000C943E000C943E000C943E000C943E0048
:100040000C943E000C943E000C943E000C943E0038
:100050000C943E000C943E000C943E000C943E0028
:100060000C943E000C943E0011241FBECFEFD8E04C
:10007000DEBFCDBF0E9457000C9463000C940000BB
:100080002BED3BE03093850020938400109280009C
:10009000E1E8F0E090819360908396B3917096BB15
:1000A0009130D9F710928100B09A8F5F08958FEF49
:1000B00084B987B980E00E94400085B9982F969551
:0A00C000969598B9F8CFF894FFCF99
:00000001FF
