:020000020000FC
:100A00000F939F936F932F9390E060E024E0012F6A
:100A1000110F960B110F961F2A952030C9F79030B1
:100A200029F0933019F09D3F09F002C0700F861F26
:100A30002F916F919F910F9108950F939F936F93B3
:100A40002F9390E060E023E0012F10FD9F5F11FDE8
:100A50009E5F12FD9C5F1695169516952A9520307F
:100A6000A1F797502AF011F023E0EFCF400F561F67
:0A0A70000F912F916F919F9108954F
:1000000008E00EBF0FEF0DBFE0E0F1E01FE729E1D0
:0C00100011931C5F2A952030D9F7FFCF18
:00000001FF
