:100000000C9434000C943E000C943E000C943E0082
:100010000C943E000C943E000C943E000C943E0068
:100020000C943E000C943E000C943E000C943E0058
:100030000C943E000C943E000C943E000C943E0048
:100040000C943E000C943E000C943E000C943E0038
:100050000C943E000C943E000C943E000C943E0028
:100060000C943E000C943E0011241FBECFEFD8E04C
:10007000DEBFCDBF0E9459000C945D000C940000BF
:100080008BED9BE09093850080938400109280001C
:10009000E1E8F0E080818360808386B3817086BB75
:1000A0008130D9F710928100B09A95B1892785B92E
:0E00B0000895209A0E944000FDCFF894FFCFE3
:00000001FF
