:020000020000FC
:02000000FFC03F
:1000340000C04F9340913F004F9340E040938100B4
:1000440041E046BB70E0DAD44F9140933F004F91BA
:020054001895FD
:100A00004F934BE0409385004BED4093840040E0D2
:100A10004093800043E04093810041E040936F00A9
:040A20004F91089555
:1002000008E00EBF1FEF0DBF2FEF24B927B92AB9A1
:1002100010E030E000E020E640E050E060E278945A
:10022000EFD371E01F5F3F5F15B9012F069506956B
:100230000073353009F456273A3011F4522730E074
:0A02400008B95BB9703069F3FDCF17
:00000001FF
