:100000000C9434000C943E000C943E000C943E0082
:100010000C943E000C943E000C943E000C943E0068
:100020000C943E000C943E000C943E000C943E0058
:100030000C943E000C943E000C943E000C943E0048
:100040000C943E000C943E000C943E000C943E0038
:100050000C943E000C943E000C943E000C943E0028
:100060000C943E000C943E0011241FBECFEFD8E04C
:10007000DEBFCDBF0E9440000C944D010C940000E7
:1000800084B18A6084B9569A15B81BB8E0E8F0E0EC
:10009000808181688083E1E8F0E0808189608083ED
:1000A00084B5836884BD85B5816085BDE0EBF0E0F3
:1000B000808183688083E1EBF0E0808181608083D0
:1000C000E8E8F0E0A3EBB0E017BC118210821C92CC
:1000D0002FEF81E19AE7215080409040E1F700C086
:1000E000000080E0CFE1DEE42197F1F700C00000DE
:1000F0008C938F5F8F3FB1F7DFEF23ED80E3D1501B
:1001000020408040E1F700C0000080E0CFE1DEE465
:100110002197F1F700C000008C9381508130B1F736
:1001200080E0CFE1DEE42197F1F700C0000080839A
:100130008F5F8F3FB1F7DFEF23ED80E3D150204099
:100140008040E1F700C0000080E0CFE1DEE42197CD
:10015000F1F700C00000808381508130B1F780E06A
:10016000CFE1DEE42197F1F700C0000087BD8F5F8B
:100170008F3FB1F7DFEF23ED80E3D1502040804087
:10018000E1F700C0000080E0CFE1DEE42197F1F765
:1001900000C0000087BD81508130B1F780E0CFE121
:1001A000DEE42197F1F700C0000080838C9387BDC7
:1001B0008F5F8F3FA1F7DFEF23ED80E3D150204029
:1001C0008040E1F700C0000080E0CFE1DEE421974D
:1001D000F1F700C00000808381508130B1F7DFEF7C
:1001E00023ED80E3D15020408040E1F700C00000C3
:1001F00080E0CFE1DEE42197F1F700C0000087BD89
:1002000081508130B1F780E0CFE1DEE42197F1F752
:1002100000C0000080838F5F8F3FB1F7DFEF23EDD9
:1002200080E3D15020408040E1F700C0000080E032
:10023000CFE1DEE42197F1F700C000008C938150FC
:100240008130B1F780E0CFE1DEE42197F1F700C023
:10025000000087BD8F5F8F3FB1F7DFEF23ED80E3B5
:10026000D15020408040E1F700C0000080E0CFE1A5
:10027000DEE42197F1F700C00000808381508130D7
:10028000B1F780E0CFE1DEE42197F1F700C0000094
:0E02900087BD81508130B1F717CFF894FFCFB2
:00000001FF
