:100000000C9434000C943E000C943E000C943E0082
:100010000C943E000C943E000C943E000C943E0068
:100020000C943E000C943E000C943E000C943E0058
:100030000C943E000C943E000C943E000C943E0048
:100040000C943E000C943E000C943E000C943E0038
:100050000C943E000C943E000C943E000C943E0028
:100060000C943E000C943E0011241FBECFEFD8E04C
:10007000DEBFCDBF0E9457000C9487000C94000097
:100080002BED3BE03093850020938400109280009C
:10009000E1E8F0E090819360908396B3917096BB15
:1000A0009130D9F710928100B09A8F5F08958FEF49
:1000B00084B987B98AB180668AB980E0CDEC10E254
:1000C000D0E40E94400085B9982F9695969598B9EE
:1000D0008C9F912D112496959695292F220F220FF2
:1000E000920F891303C09BB191279BB98C9F912DCF
:1000F0001124969596959695990F292F220F220FE8
:10010000920F8913DECF9BB19D279BB9DACFF8946C
:02011000FFCF1F
:00000001FF
