:100000000C9424010C9441010C9441010C94410185
:100010000C9441010C9441010C9441010C94410158
:100020000C9441010C9441010C9441010C94410148
:100030000C9441010C9443010C9441010C94410136
:100040000C9441010C9441010C9441010C94410128
:100050000C9441010C9441010C9441010C94410118
:100060000C9441010C944101000000000000005F6D
:1000700000000007000700147F147F14242A7F2A41
:10008000122313086462364955225000050300000C
:10009000001C2241000041221C0014083E081408E4
:1000A000083E0808005030000008080808080060F2
:1000B00060000020100804023E5149453E00427F86
:1000C000400042615149462141454B311814127F8D
:1000D0001027454545393C4A494930017109050316
:1000E0003649494936064949291E0036360000007E
:1000F0005636000008142241001414141414004150
:100100002214080201510906324979413E7E11113B
:10011000117E7F494949363E414141227F4141227A
:100120001C7F494949417F090909013E4149497AF2
:100130007F0808087F00417F41002040413F017F48
:10014000081422417F404040407F020C027F7F0420
:1001500008107F3E4141413E7F090909063E415159
:10016000215E7F09192946464949493101017F012C
:10017000013F4040403F1F2040201F3F4038403F4C
:100180006314081463070870080761514945430068
:100190007F41410002040810200041417F00040219
:1001A0000102044040404040000102040020545439
:1001B00054787F48444438384444442038444448C0
:1001C0007F3854545418087E0901020C5252523E92
:1001D0007F0804047800447D40002040443D007FB7
:1001E0001028440000417F40007C041804787C08FB
:1001F00004047838444444387C1414140808141453
:10020000187C7C080404084854545420043F44409B
:10021000203C4040207C1C2040201C3C4030403C86
:1002200044281028440C5050503C4464544C440022
:100230000836410000007F00000041360800100829
:10024000081008000000000011241FBECFEFD8E006
:10025000DEBFCDBF11E0A0E0B1E0ECEBFFE002C0FB
:1002600005900D92AC30B107D9F723E0ACE0B1E0D6
:1002700001C01D92A730B207E1F70E9485010C94DE
:10028000DC070C9400001F920F920FB60F921124FE
:100290008F939F9381E080930C018BE791EE909375
:1002A0008500809384009F918F910F900FBE0F90D7
:1002B0001F901895EAE7F0E087E8808380EC809350
:1002C0007C00808180648083808184FFFDCF609189
:1002D00078007091790080E090E00E94FD0320E0BA
:1002E00030E046EC52E40E948B0420E030E040E035
:1002F0005BE30E948B0420E030E048E652E40E9479
:100300005A030E94C703CB010895CF93DF93CDB763
:10031000DEB764970FB6F894DEBF0FBECDBF0E9464
:10032000F5010E9439028BE791EE9093850080934E
:10033000840085E08093810081E080936F00789451
:100340000F2EF7E0CF2EF1E0DF2EF02DCE0101963B
:100350007C010E945A01182F092F20910C01213095
:10036000C1F70E94390210920C0162E080E091E036
:100370000E94280360E180E00E943B030F931F93DB
:10038000DF92CF92FF92EF920E94040562E0C701D4
:100390000E9428030E9440030F900F900F900F902F
:1003A0000F900F90D6CF2998662311F02B9A15C085
:1003B0002B9813C0AC01022E02C0559547950A94A4
:1003C000E2F740FF02C02C9A01C02C982D9A2D987C
:1003D0002150310978F7299A089527E030E090E01C
:1003E000E9CF60E00E94D3010895CF93DF93219A73
:1003F000229A239A249A259A2A9A299A8FE19EE48E
:100400000197F1F700C000002A989FE725EB81E0F3
:10041000915020408040E1F700C000002A9A2998BE
:1004200081E20E94F10183E10E94F10186E00E94D5
:10043000F10182EC0E94F10180E20E94F10189E069
:100440000E94F10180E80E94F10180E40E94F10124
:10045000C8EFD1E061E080E00E94D3012197D1F79D
:1004600088E00E94F1018CE00E94F101DF91CF91C0
:10047000089580E80E94F10180E40E94F101109249
:10048000050310920603EDE0F1E085E093E01192A0
:10049000E817F907E1F70895262F26952695269562
:1004A00090E034E5239F800D911D1124442379F0C1
:1004B000FC01E35FFE4F677081E090E002C0880FAF
:1004C000991F6A95E2F79081892B80830895FC013A
:1004D000E35FFE4F677081E090E002C0880F991FD4
:1004E0006A95E2F7809590818923808308954F92E1
:1004F0005F926F927F928F929F92AF92BF92CF92B4
:10050000DF92EF92FF920F931F93CF93DF93562EBC
:10051000262F30E04901880C991C880C991C820E0A
:10052000931E181419040CF05EC08901000F111FEE
:10053000000F111F000F111F021B130B612CA82E9F
:10054000B12CC50180975C01AA0CBB1CAA0CBB1C7A
:10055000A80EB91E412C0F2EF6E0CF2EF3E0DF2EB1
:10056000F02D0F2EF5E0EF2EF3E0FF2EF02D2DC035
:10057000FE01249130E0872D652D0E94F80402C011
:10058000359527958A95E2F720FF0AC0F60160812C
:10059000670DF701808141E0860D0E944C0209C081
:1005A000F6016081670DF7018081442D860D0E9460
:1005B0004C027394872D90E080179107CCF26394DE
:1005C000862D90E08815990574F410161106BCF775
:1005D000862D652D0E94F804E501C80FD11DC8596C
:1005E000DF4F742CC5CF8091050391E0980F852DC6
:1005F000880F880F850D890F843518F480930503C3
:100600000EC010920503E6E0F3E0808191E0980FC0
:10061000852D880F880F880F8519890F8083809119
:100620000603803320F01092050310920603DF9139
:10063000CF911F910F91FF90EF90DF90CF90BF90DF
:10064000AF909F908F907F906F905F904F900895A4
:100650001F93CF93DF93EC018881882341F0162FFD
:100660002196612F0E94770289918111FACFDF9143
:10067000CF911F9108958093050360930603089519
:100680000F931F93CF93DF9380E80E94F10180E4E2
:100690000E94F101CDE0D1E005E013E061E0899135
:1006A0000E94D301C017D107C9F7DF91CF911F91E5
:1006B0000F9108955058BB27AA270E9472030C94EB
:1006C00051040E94430438F00E944A0420F039F497
:1006D0009F3F19F426F40C9440040EF4E095E7FBD8
:1006E0000C943A04E92F0E94620458F3BA17620787
:1006F00073078407950720F079F4A6F50C94840419
:100700000EF4E0950B2EBA2FA02D0B01B90190012C
:100710000C01CA01A0011124FF27591B99F0593F70
:1007200050F4503E68F11A16F040A22F232F342FB8
:100730004427585FF3CF469537952795A795F04006
:100740005395C9F77EF41F16BA0B620B730B840B1B
:10075000BAF09150A1F0FF0FBB1F661F771F881FD3
:10076000C2F70EC0BA0F621F731F841F48F487952B
:1007700077956795B795F7959E3F08F0B0CF93951D
:10078000880F08F09927EE0F9795879508950E9496
:10079000CE036894B1110C94850408950E946A04F4
:1007A00088F09F5798F0B92F9927B751B0F0E1F032
:1007B000660F771F881F991F1AF0BA95C9F714C0E2
:1007C000B13091F00E948404B1E008950C94840447
:1007D000672F782F8827B85F39F0B93FCCF386951B
:1007E00077956795B395D9F73EF490958095709578
:1007F00061957F4F8F4F9F4F0895E89409C097FBF5
:100800003EF490958095709561957F4F8F4F9F4FE7
:100810009923A9F0F92F96E9BB279395F69587952B
:1008200077956795B795F111F8CFFAF4BB0F11F4EE
:1008300060FF1BC06F5F7F4F8F4F9F4F16C0882395
:1008400011F096E911C0772321F09EE8872F762FCB
:1008500005C0662371F096E8862F70E060E02AF00C
:100860009A95660F771F881FDAF7880F96958795F8
:1008700097F9089597F99F6780E870E060E0089520
:100880009FEF80EC089500240A94161617061806A8
:100890000906089500240A94121613061406050684
:1008A0000895092E0394000C11F4882352F0BB0F15
:1008B00040F4BF2B11F460FF04C06F5F7F4F8F4F78
:1008C0009F4F089557FD9058440F551F59F05F3FB3
:1008D00071F04795880F97FB991F61F09F3F79F062
:1008E00087950895121613061406551FF2CF4695E4
:1008F000F1DF08C0161617061806991FF1CF869566
:100900007105610508940895E894BB276627772749
:10091000CB0197F908950E949E040C9451040E9403
:10092000430438F00E944A0420F0952311F00C94FF
:100930003A040C94400411240C9485040E9462042F
:1009400070F3959FC1F3950F50E0551F629FF00122
:10095000729FBB27F00DB11D639FAA27F00DB11D3B
:10096000AA1F649F6627B00DA11D661F829F2227C4
:10097000B00DA11D621F739FB00DA11D621F839F4B
:10098000A00D611D221F749F3327A00D611D231F21
:10099000849F600D211D822F762F6A2F11249F576F
:1009A00050409AF0F1F088234AF0EE0FFF1FBB1F72
:1009B000661F771F881F91505040A9F79E3F510531
:1009C00080F00C943A040C9485045F3FE4F3983E65
:1009D000D4F3869577956795B795F795E7959F5FDB
:1009E000C1F7FE2B880F911D9695879597F908956D
:1009F000991B79E004C0991F961708F0961B881F71
:100A00007A95C9F780950895AEE0B0E0EAE0F5E0A8
:100A10000C94B3070D891E8986E08C831A830983A1
:100A20008FEF9FE79E838D83AE01475E5F4F6F8997
:100A3000788DCE0101960E9427052F813885F80117
:100A4000E20FF31F10822E96E4E00C94CF07ACE087
:100A5000B0E0EDE2F5E00C94A5077C016B018A01A2
:100A6000FC0117821682838181FFBDC1CE010196F0
:100A70004C01F7019381F60193FD859193FF8191DC
:100A80006F01882309F4ABC1853239F493FD859158
:100A900093FF81916F01853229F4B70190E00E94A4
:100AA0000F07E7CF512C312C20E02032A0F48B32FD
:100AB00069F030F4803259F0833269F420612CC03F
:100AC0008D3239F0803339F4216026C022602460F1
:100AD00023C0286021C027FD27C030ED380F3A30F1
:100AE00078F426FF06C0FAE05F9E300D1124532EE5
:100AF00013C08AE0389E300D1124332E20620CC0C2
:100B00008E3221F426FD6BC1206406C08C3611F4B0
:100B1000206802C0883641F4F60193FD859193FF69
:100B200081916F018111C1CF982F9F7D9554933092
:100B300028F40C5F1F4FFFE3F9830DC0833631F0BB
:100B4000833771F0833509F05BC022C0F8018081E2
:100B500089830E5F1F4F44244394512C540115C0C8
:100B60003801F2E06F0E711CF801A080B18026FF01
:100B700003C0652D70E002C06FEF7FEFC5012C87C9
:100B80000E9404072C0183012C852F77222E17C089
:100B90003801F2E06F0E711CF801A080B18026FFD1
:100BA00003C0652D70E002C06FEF7FEFC5012C8799
:100BB0000E94F9062C012C852068222E830123FC3B
:100BC0001BC0832D90E048165906B0F4B70180E2AF
:100BD00090E00E940F073A94F4CFF50127FC85912D
:100BE00027FE81915F01B70190E00E940F0731104D
:100BF0003A94F1E04F1A51084114510471F7E5C0DD
:100C0000843611F0893639F5F80127FF07C0608175
:100C10007181828193810C5F1F4F08C06081718157
:100C2000072E000C880B990B0E5F1F4F2F76722E2C
:100C300097FF09C090958095709561957F4F8F4F74
:100C40009F4F2068722E2AE030E0A4010E944707DF
:100C5000A82EA81844C0853729F42F7EB22E2AE08A
:100C600030E025C0F22FF97FBF2E8F36C1F018F487
:100C7000883579F0B4C0803719F0883721F0AFC0DB
:100C80002F2F2061B22EB4FE0DC08B2D8460B82EA4
:100C900009C024FF0AC09F2F9660B92E06C028E025
:100CA00030E005C020E130E002C020E132E0F80190
:100CB000B7FE07C060817181828193810C5F1F4FF5
:100CC00006C06081718180E090E00E5F1F4FA4013B
:100CD0000E944707A82EA818FB2DFF777F2E76FECF
:100CE0000BC0372D3E7FA51450F474FE0AC072FC71
:100CF00008C0372D3E7E05C0BA2C372D03C0BA2C54
:100D000001C0B52C34FF0DC0FE01EA0DF11D80813C
:100D1000803311F4397E09C032FF06C0B394B39416
:100D200004C0832F867809F0B39433FD13C030FFDD
:100D300006C05A2CB31418F4530C5B18B32CB3141C
:100D400068F4B70180E290E03C870E940F07B394FB
:100D50003C85F5CFB31410F43B1801C0312C34FF9F
:100D600012C0B70180E390E03C870E940F073C85EA
:100D700032FF17C031FD03C088E790E002C088E56C
:100D800090E0B7010CC0832F867859F031FF02C084
:100D90008BE201C080E237FD8DE2B70190E00E9456
:100DA0000F07A51438F4B70180E390E00E940F0705
:100DB0005A94F7CFAA94F401EA0DF11D8081B7018E
:100DC00090E00E940F07A110F5CF332009F451CE17
:100DD000B70180E290E00E940F073A94F6CFF70146
:100DE0008681978102C08FEF9FEF2C96E2E10C94F1
:100DF000C107FC010590615070400110D8F7809543
:100E000090958E0F9F1F0895FC01615070400190D6
:100E10000110D8F7809590958E0F9F1F08950F931E
:100E20001F93CF93DF93FB01238121FD03C08FEF3D
:100E30009FEF28C022FF16C046815781248135814B
:100E40004217530744F4A081B1819D012F5F3F4FAA
:100E5000318320838C93268137812F5F3F4F3783E7
:100E6000268310C0EB01092F182F0084F185E02D97
:100E70000995892BE1F68E819F8101969F838E8350
:100E8000812F902FDF91CF911F910F910895FA013B
:100E9000AA27283051F1203181F1E8946F936E7FB9
:100EA0006E5F7F4F8F4F9F4FAF4FB1E03ED0B4E0AA
:100EB0003CD0670F781F891F9A1FA11D680F791FEB
:100EC0008A1F911DA11D6A0F711D811D911DA11DFC
:100ED00020D009F468943F912AE0269F112430190C
:100EE000305D3193DEF6CF010895462F4770405DA7
:100EF0004193B3E00FD0C9F7F6CF462F4F70405D56
:100F00004A3318F0495D31FD4052419302D0A9F7B0
:100F1000EACFB4E0A6959795879577956795BA95AA
:100F2000C9F700976105710508959B01AC010A2E70
:100F300006945795479537952795BA95C9F7620F47
:100F4000731F841F951FA01D08952F923F924F92EB
:100F50005F926F927F928F929F92AF92BF92CF9249
:100F6000DF92EF92FF920F931F93CF93DF93CDB752
:100F7000DEB7CA1BDB0B0FB6F894DEBF0FBECDBFCA
:100F800009942A88398848885F846E847D848C849B
:100F90009B84AA84B984C884DF80EE80FD800C81A4
:100FA0001B81AA81B981CE0FD11D0FB6F894DEBF87
:0C0FB0000FBECDBFED010895F894FFCFF7
:0C0FBC0054656D703A200025644600006A
:00000001FF
