S00E00005461736B5F332E73726563F1
S11300000C9434000C943E000C943E000C943E007E
S11300100C943E000C943E000C943E000C943E0064
S11300200C943E000C943E000C943E000C943E0054
S11300300C943E000C943E000C943E000C943E0044
S11300400C943E000C943E000C943E000C943E0034
S11300500C943E000C943E000C943E000C943E0024
S11300600C943E000C943E0011241FBECFEFD8E048
S1130070DEBFCDBF0E9451000C94A0000C94000080
S1130080EAE7F0E087E8808310927C008081806456
S11300908083808184FFFDCF8091780090917900E6
S11300A008953898219A80E29EE490938700809383
S11300B08600E0E8F0E0808182688083E1E8F0E097
S11300C080818A6180830AE010E0C8E8D0E00E9461
S11300D0400082959295907F9827807F9827B80159
S11300E00E947800CB0186519E4F99838883EFCF7D
S11300F097FB072E16F4009407D077FD09D00E94D1
S11301008C0007FC05D03EF4909581959F4F08958F
S1130110709561957F4F0895AA1BBB1B51E107C0E1
S1130120AA1FBB1FA617B70710F0A61BB70B881F83
S1130130991F5A95A9F780959095BC01CD01089512
S1070140F894FFCF5D
S9030000FC
